{
  "abi": [
    {
      "type": "constructor",
      "inputs": [
        {
          "name": "_creationFee",
          "type": "uint256",
          "internalType": "uint256"
        },
        {
          "name": "_feeToken",
          "type": "address",
          "internalType": "address"
        },
        {
          "name": "_housePercentage",
          "type": "uint256",
          "internalType": "uint256"
        },
        {
          "name": "_houseAddress",
          "type": "address",
          "internalType": "address"
        }
      ],
      "stateMutability": "nonpayable"
    },
    {
      "type": "function",
      "name": "BASIS_POINTS",
      "inputs": [],
      "outputs": [
        {
          "name": "",
          "type": "uint256",
          "internalType": "uint256"
        }
      ],
      "stateMutability": "view"
    },
    {
      "type": "function",
      "name": "createPresale",
      "inputs": [
        {
          "name": "_options",
          "type": "tuple",
          "internalType": "struct Presale.PresaleOptions",
          "components": [
            {
              "name": "tokenDeposit",
              "type": "uint256",
              "internalType": "uint256"
            },
            {
              "name": "hardCap",
              "type": "uint256",
              "internalType": "uint256"
            },
            {
              "name": "softCap",
              "type": "uint256",
              "internalType": "uint256"
            },
            {
              "name": "min",
              "type": "uint256",
              "internalType": "uint256"
            },
            {
              "name": "max",
              "type": "uint256",
              "internalType": "uint256"
            },
            {
              "name": "presaleRate",
              "type": "uint256",
              "internalType": "uint256"
            },
            {
              "name": "start",
              "type": "uint256",
              "internalType": "uint256"
            },
            {
              "name": "end",
              "type": "uint256",
              "internalType": "uint256"
            },
            {
              "name": "currency",
              "type": "address",
              "internalType": "address"
            },
            {
              "name": "whitelistType",
              "type": "uint8",
              "internalType": "enum Presale.WhitelistType"
            },
            {
              "name": "merkleRoot",
              "type": "bytes32",
              "internalType": "bytes32"
            },
            {
              "name": "nftContractAddress",
              "type": "address",
              "internalType": "address"
            }
          ]
        },
        {
          "name": "_token",
          "type": "address",
          "internalType": "address"
        }
      ],
      "outputs": [
        {
          "name": "presaleAddress",
          "type": "address",
          "internalType": "address"
        }
      ],
      "stateMutability": "payable"
    },
    {
      "type": "function",
      "name": "createdPresales",
      "inputs": [
        {
          "name": "",
          "type": "uint256",
          "internalType": "uint256"
        }
      ],
      "outputs": [
        {
          "name": "",
          "type": "address",
          "internalType": "address"
        }
      ],
      "stateMutability": "view"
    },
    {
      "type": "function",
      "name": "creationFee",
      "inputs": [],
      "outputs": [
        {
          "name": "",
          "type": "uint256",
          "internalType": "uint256"
        }
      ],
      "stateMutability": "view"
    },
    {
      "type": "function",
      "name": "feeToken",
      "inputs": [],
      "outputs": [
        {
          "name": "",
          "type": "address",
          "internalType": "address"
        }
      ],
      "stateMutability": "view"
    },
    {
      "type": "function",
      "name": "getAllPresales",
      "inputs": [],
      "outputs": [
        {
          "name": "",
          "type": "address[]",
          "internalType": "address[]"
        }
      ],
      "stateMutability": "view"
    },
    {
      "type": "function",
      "name": "getCreationFee",
      "inputs": [],
      "outputs": [
        {
          "name": "",
          "type": "uint256",
          "internalType": "uint256"
        }
      ],
      "stateMutability": "view"
    },
    {
      "type": "function",
      "name": "getHouseAddress",
      "inputs": [],
      "outputs": [
        {
          "name": "",
          "type": "address",
          "internalType": "address"
        }
      ],
      "stateMutability": "view"
    },
    {
      "type": "function",
      "name": "getHousePercentage",
      "inputs": [],
      "outputs": [
        {
          "name": "",
          "type": "uint256",
          "internalType": "uint256"
        }
      ],
      "stateMutability": "view"
    },
    {
      "type": "function",
      "name": "getPresaleAt",
      "inputs": [
        {
          "name": "index",
          "type": "uint256",
          "internalType": "uint256"
        }
      ],
      "outputs": [
        {
          "name": "",
          "type": "address",
          "internalType": "address"
        }
      ],
      "stateMutability": "view"
    },
    {
      "type": "function",
      "name": "getPresaleCount",
      "inputs": [],
      "outputs": [
        {
          "name": "",
          "type": "uint256",
          "internalType": "uint256"
        }
      ],
      "stateMutability": "view"
    },
    {
      "type": "function",
      "name": "houseAddress",
      "inputs": [],
      "outputs": [
        {
          "name": "",
          "type": "address",
          "internalType": "address"
        }
      ],
      "stateMutability": "view"
    },
    {
      "type": "function",
      "name": "housePercentage",
      "inputs": [],
      "outputs": [
        {
          "name": "",
          "type": "uint256",
          "internalType": "uint256"
        }
      ],
      "stateMutability": "view"
    },
    {
      "type": "function",
      "name": "owner",
      "inputs": [],
      "outputs": [
        {
          "name": "",
          "type": "address",
          "internalType": "address"
        }
      ],
      "stateMutability": "view"
    },
    {
      "type": "function",
      "name": "renounceOwnership",
      "inputs": [],
      "outputs": [],
      "stateMutability": "nonpayable"
    },
    {
      "type": "function",
      "name": "setFeeConfiguration",
      "inputs": [
        {
          "name": "_newCreationFee",
          "type": "uint256",
          "internalType": "uint256"
        },
        {
          "name": "_newFeeToken",
          "type": "address",
          "internalType": "address"
        }
      ],
      "outputs": [],
      "stateMutability": "nonpayable"
    },
    {
      "type": "function",
      "name": "setHouseConfiguration",
      "inputs": [
        {
          "name": "_newHousePercentage",
          "type": "uint256",
          "internalType": "uint256"
        },
        {
          "name": "_newHouseAddress",
          "type": "address",
          "internalType": "address"
        }
      ],
      "outputs": [],
      "stateMutability": "nonpayable"
    },
    {
      "type": "function",
      "name": "transferOwnership",
      "inputs": [
        {
          "name": "newOwner",
          "type": "address",
          "internalType": "address"
        }
      ],
      "outputs": [],
      "stateMutability": "nonpayable"
    },
    {
      "type": "function",
      "name": "withdrawFees",
      "inputs": [],
      "outputs": [],
      "stateMutability": "nonpayable"
    },
    {
      "type": "event",
      "name": "FeeConfigurationChanged",
      "inputs": [
        {
          "name": "newCreationFee",
          "type": "uint256",
          "indexed": false,
          "internalType": "uint256"
        },
        {
          "name": "newFeeToken",
          "type": "address",
          "indexed": false,
          "internalType": "address"
        }
      ],
      "anonymous": false
    },
    {
      "type": "event",
      "name": "HouseConfigurationChanged",
      "inputs": [
        {
          "name": "newHousePercentage",
          "type": "uint256",
          "indexed": false,
          "internalType": "uint256"
        },
        {
          "name": "newHouseAddress",
          "type": "address",
          "indexed": false,
          "internalType": "address"
        }
      ],
      "anonymous": false
    },
    {
      "type": "event",
      "name": "OwnershipTransferred",
      "inputs": [
        {
          "name": "previousOwner",
          "type": "address",
          "indexed": true,
          "internalType": "address"
        },
        {
          "name": "newOwner",
          "type": "address",
          "indexed": true,
          "internalType": "address"
        }
      ],
      "anonymous": false
    },
    {
      "type": "event",
      "name": "PresaleCreated",
      "inputs": [
        {
          "name": "creator",
          "type": "address",
          "indexed": true,
          "internalType": "address"
        },
        {
          "name": "presaleContract",
          "type": "address",
          "indexed": true,
          "internalType": "address"
        },
        {
          "name": "token",
          "type": "address",
          "indexed": true,
          "internalType": "address"
        },
        {
          "name": "start",
          "type": "uint256",
          "indexed": false,
          "internalType": "uint256"
        },
        {
          "name": "end",
          "type": "uint256",
          "indexed": false,
          "internalType": "uint256"
        }
      ],
      "anonymous": false
    },
    {
      "type": "error",
      "name": "FeePaymentFailed",
      "inputs": []
    },
    {
      "type": "error",
      "name": "IndexOutOfBounds",
      "inputs": []
    },
    {
      "type": "error",
      "name": "InvalidFeeConfiguration",
      "inputs": []
    },
    {
      "type": "error",
      "name": "InvalidHouseConfiguration",
      "inputs": []
    },
    {
      "type": "error",
      "name": "OwnableInvalidOwner",
      "inputs": [
        {
          "name": "owner",
          "type": "address",
          "internalType": "address"
        }
      ]
    },
    {
      "type": "error",
      "name": "OwnableUnauthorizedAccount",
      "inputs": [
        {
          "name": "account",
          "type": "address",
          "internalType": "address"
        }
      ]
    },
    {
      "type": "error",
      "name": "ReentrancyGuardReentrantCall",
      "inputs": []
    },
    {
      "type": "error",
      "name": "SafeERC20FailedOperation",
      "inputs": [
        {
          "name": "token",
          "type": "address",
          "internalType": "address"
        }
      ]
    },
    {
      "type": "error",
      "name": "ZeroAddress",
      "inputs": []
    }
  ],
  "bytecode": {
    "object": "0x60803461013557601f61322938819003918201601f19168301916001600160401b038311848410176101395780849260809460405283398101031261013557805161004c6020830161014d565b9161005e60606040830151920161014d565b923315610122575f8054336001600160a01b0319821681178355604051969290916001600160a01b0316907f8be0079c531659141344cd1fd0a4f28419497f9722a3daafe3b4186f6b6457e09080a3600180556101f4831161010a576001600160a01b031692831580610119575b61010a5760025560018060a01b031660018060a01b0319600354161760035560045560018060a01b031960055416176005556130c790816101628239f35b6362c9b89160e11b5f5260045ffd5b508215156100cc565b631e4fbdf760e01b5f525f60045260245ffd5b5f80fd5b634e487b7160e01b5f52604160045260245ffd5b51906001600160a01b03821682036101355756fe60806040526004361015610011575f80fd5b5f3560e01c806337a9ab4c146109ee5780633f987a1f146105c2578063476343ee146104af57806349d2e277146103d757806362e6b3a91461047e578063647846a514610458578063715018a6146103f45780637ef97d73146103d75780638da5cb5b146103b257806392144b621461033c578063a725976714610362578063d7cee31e1461033c578063db07b68e1461031f578063dce0b4e41461031f578063defbdb8314610302578063e1f1c4a7146102e6578063ea9160dd1461021e578063f2fde38b1461019f5763fae85927146100ea575f80fd5b3461019b57604036600319011261019b57600435610106610aa6565b61010e610b2b565b6001600160a01b0381169182610180575b7f4cd68e04e888ae02296b686261dd66226ff1d60291837212646f8e05727d594592816002556001600160a01b0319600354161760035561017b604051928392839092916001600160a01b036020916040840195845216910152565b0390a1005b63ffffffff823b1661011f5763d92e233d60e01b5f5260045ffd5b5f80fd5b3461019b57602036600319011261019b576004356001600160a01b03811680910361019b576101cc610b2b565b801561020b576001600160a01b035f548282198216175f55167f8be0079c531659141344cd1fd0a4f28419497f9722a3daafe3b4186f6b6457e05f80a3005b631e4fbdf760e01b5f525f60045260245ffd5b3461019b575f36600319011261019b576040518060206006549283815201809260065f527ff652222313e28459528d920b65115c16c04f3efc82aaedc97be59f3f377c0d3f905f5b8181106102c7575050508161027c910382610abc565b604051918291602083019060208452518091526040830191905f5b8181106102a5575050500390f35b82516001600160a01b0316845285945060209384019390920191600101610297565b82546001600160a01b0316845260209093019260019283019201610266565b3461019b575f36600319011261019b5760206040516127108152f35b3461019b575f36600319011261019b576020600654604051908152f35b3461019b575f36600319011261019b576020600254604051908152f35b3461019b575f36600319011261019b5760206001600160a01b0360055416604051908152f35b3461019b57602036600319011261019b576004356006548110156103a3576001600160a01b03610393602092610ade565b90549060031b1c16604051908152f35b634e23d03560e01b5f5260045ffd5b3461019b575f36600319011261019b5760206001600160a01b035f5416604051908152f35b3461019b575f36600319011261019b576020600454604051908152f35b3461019b575f36600319011261019b5761040c610b2b565b5f805473ffffffffffffffffffffffffffffffffffffffff19811682556001600160a01b03167f8be0079c531659141344cd1fd0a4f28419497f9722a3daafe3b4186f6b6457e08280a3005b3461019b575f36600319011261019b5760206001600160a01b0360035416604051908152f35b3461019b57602036600319011261019b5760043560065481101561019b576001600160a01b03610393602092610ade565b3461019b575f36600319011261019b576104c7610b2b565b47801561057d575f808080936001600160a01b038254165af13d15610578573d67ffffffffffffffff8111610564576040519061050e601f8201601f191660200183610abc565b81525f60203d92013e5b1561051f57005b60405162461bcd60e51b815260206004820152601960248201527f45544820666565207769746864726177616c206661696c6564000000000000006044820152606490fd5b634e487b7160e01b5f52604160045260245ffd5b610518565b60405162461bcd60e51b815260206004820152601360248201527f4e6f206665657320746f207769746864726177000000000000000000000000006044820152606490fd5b36600319016101a0811261019b576101801361019b57604051610180810181811067ffffffffffffffff8211176105645760405260043581526020810160243581526040820160443581526060830190606435825260808401608435815260a085019060a435825260c086019360c435855260e087019360e435855261010435966001600160a01b038816880361019b5761010089019788526101243591600383101561019b576101208a019283526101408a019261014435845261016435946001600160a01b038616860361019b576101608c01958652610184359a6001600160a01b038c16809c0361019b576002600154146109df57600260018190555480156109c2576003546001600160a01b0316908161097f57505060025498893410610970578d988d938b3411610936575b67ffffffffffffffff98999a9b505b600454966001600160a01b0360055416986040519d8e976124b2988981019d8e918210911117610564578f986001600160a01b0399610be090398c525160208c01525160408b01525160608a01525160808901525160a08801525160c08701528a5160e087015289516101008701525116610120850152516003811015610922576102209587956001600160a01b0392610140870152516101608601525116610180840152336101a08401526101c08301526101e0820152306102008201520301905ff080156108c3576001600160a01b036107e391169451853386610b51565b60405163027b704760e31b81526020816004815f895af180156108c3576108f3575b5060065491680100000000000000008310156105645761082c836001879501600655610ade565b81549060031b906001600160a01b0386831b921b191617905551905160405191825260208201527fdf058c371fcd1a975a9f8b29fb3823e0f4fcc990e97f681cca2bfe085eae91d960403392a4600254801515806108e0575b806108d7575b61089f575b60208260018055604051908152f35b5f80806108ad819434610b0a565b8181156108ce575b3390f1156108c35781610890565b6040513d5f823e3d90fd5b506108fc6108b5565b5080341161088b565b506001600160a01b036003541615610885565b6020813d60201161091a575b8161090c60209383610abc565b8101031261019b5751610805565b3d91506108ff565b634e487b7160e01b5f52602160045260245ffd5b935096979850985f808061094b819434610b0a565b818115610967575b3390f1156108c357888d9897968d936106f3565b506108fc610953565b63f0e492a360e01b5f5260045ffd5b929990969798346109b3578e9a6109ae8f9567ffffffffffffffff9a6001600160a01b035f5416903390610b51565b610702565b63369276d760e11b5f5260045ffd5b5096949596346109b3578c9867ffffffffffffffff968d93610702565b633ee5aeb560e01b5f5260045ffd5b3461019b57604036600319011261019b57600435610a0a610aa6565b610a12610b2b565b6101f48211610a8e576001600160a01b03811691821580610a9d575b610a8e577f7f2d9545e28909b66063433f41db88f48e1a8d0217e0f2d0991e0a02e33ebdae92816004556001600160a01b0319600554161760055561017b604051928392839092916001600160a01b036020916040840195845216910152565b6362c9b89160e11b5f5260045ffd5b50801515610a2e565b602435906001600160a01b038216820361019b57565b90601f8019910116810190811067ffffffffffffffff82111761056457604052565b600654811015610af65760065f5260205f2001905f90565b634e487b7160e01b5f52603260045260245ffd5b91908203918211610b1757565b634e487b7160e01b5f52601160045260245ffd5b6001600160a01b035f54163303610b3e57565b63118cdaa760e01b5f523360045260245ffd5b92906020925f926001600160a01b036040519281878501956323b872dd60e01b8752166024850152166044830152606482015260648152610b93608482610abc565b519082855af1156108c3575f513d610bd657506001600160a01b0381163b155b610bba5750565b6001600160a01b0390635274afe760e01b5f521660045260245ffd5b60011415610bb356fe61012060405234610520576040516124b238819003601f8101601f191683016001600160401b038111848210176105245783928291604052833981010361022081126105205761018061005183610538565b91601f190112610520576040519061018082016001600160401b03811183821017610524576040526020830151825260408301516020830152606083015160408301526080830151606083015260a0830151608083015260c083015160a083015260e083015160c083015261010083015160e08301526100d46101208401610538565b6101008301526101408301516003811015610520576101208301526101608301516101408301526101086101808401610538565b61016083015261011b6101a08401610538565b916101c08401519361013d6102006101366101e08401610538565b9201610538565b60015f55946001600160a01b0385161561050d57600180546001600160a01b038781166001600160a01b031983168117909355604051989291167f8be0079c531659141344cd1fd0a4f28419497f9722a3daafe3b4186f6b6457e05f80a36001600160a01b038516156104fe576101f482116104e6576001600160a01b03831615806104f5575b6104e657602084015180159081156104d9575b81156104cb575b506104bc57608084015180159081156104af575b81156104a0575b8115610492575b506104835760a0840151156104745760c0840151428110908115610465575b506104565761012084015160038110156104015760011480610449575b61043a5761012084015160038110156104015760021480610424575b610415576001600160a01b0385811661010090815285516006556020860151600755604086015160085560608601516009556080860151600a5560a0860151600b5560c0860151600c5560e0860151600d55850151600e80546001600160a01b03191691909216179055610120840151600381101561040157600e805460ff60a01b191660a092831b60ff60a01b16179055610140850151600f55610160850151601080546001600160a01b0319166001600160a01b039290921691909117905560e0919091525260c0526011805460ff19169055610120810151600381101561040157151560805260c081015160e09091015190845260208401526001600160a01b03908116923092909116907fdf058c371fcd1a975a9f8b29fb3823e0f4fcc990e97f681cca2bfe085eae91d990604090a4604051611f65908161054d823960805181610f16015260a0518181816110b90152611209015260c0518181816108530152611188015260e051818181610c9f01526114180152610100518181816105f8015281816107d30152818161097501528181610fc30152818161147101526119da0152f35b634e487b7160e01b5f52602160045260245ffd5b633ab4448b60e01b5f5260045ffd5b506101608401516001600160a01b031615610258565b639dd854d360e01b5f5260045ffd5b506101408401511561023c565b63d22806e360e01b5f5260045ffd5b905060e085015111155f61021f565b63d1107a7960e01b5f5260045ffd5b63dcac5ed360e01b5f5260045ffd5b90506020850151105f610200565b809150606086015111906101f9565b60608601511591506101f2565b63269ae9a360e01b5f5260045ffd5b90506040850151115f6101de565b60408601511591506101d7565b6362c9b89160e11b5f5260045ffd5b508115156101c4565b63f92ee8a960e01b5f5260045ffd5b631e4fbdf760e01b5f525f60045260245ffd5b5f80fd5b634e487b7160e01b5f52604160045260245ffd5b51906001600160a01b03821682036105205756fe608080604052600436101561040a575b50361561001a575f80fd5b610022611a49565b60ff600354166103fb5760ff6011541660048110156103ac57600181036103e957600c54421080156103de575b6103cf5733156103c057600e5460ff8160a01c1660038110156103ac57600181036103065750600f5460405160208101906bffffffffffffffffffffffff193360601b168252601481526100a46034826118b0565b5190205f905b6060518210156100eb5760808260051b0151908181105f146100da575f52602052600160405f205b9101906100aa565b905f52602052600160405f206100d2565b9050036102f7576001600160a01b03905b161580156102cd5734156102be575b80156102b75734905b60175491610122818461193a565b600754106102a85760095481106102995761014990335f52601260205260405f205461193a565b600a541061028a571561027f5761016134809261193a565b6017556101708160025461193a565b600255335f52601360205260ff60405f20541615610212575b335f52601260205260405f206101a082825461193a565b90556040518181527f2499a5330ab0979cc612135e7883ebc3cd5c9f7a8508f042540c34723348f63260203392a26001600160a01b03600e54161560405191825260208201527f08ce00466abd322339ad31e43307a70a872f8c32a13d8b24ed85948ba75ed1b360403392a260015f55005b335f52601360205260405f20600160ff198254161790556014546801000000000000000081101561026b5780600161024d92016014556116be565b81549060031b906001600160a01b0333831b921b1916179055610189565b634e487b7160e01b5f52604160045260245ffd5b61016134809261193a565b639f256db560e01b5f5260045ffd5b632afb507160e21b5f5260045ffd5b631c4af3c960e11b5f5260045ffd5b3490610114565b631f2a200560e01b5f5260045ffd5b341580156102e9571561010b57631f2a200560e01b5f5260045ffd5b6248c6b960e61b5f5260045ffd5b630b094f2760e31b5f5260045ffd5b60021461031c575b6001600160a01b03906100fc565b602460206001600160a01b0360105416604051928380926370a0823160e01b82523360048301525afa5f9181610374575b506103615763457b8b9360e11b5f5260045ffd5b61030e5763e9e7bfc360e01b5f5260045ffd5b9091506020813d6020116103a4575b81610390602093836118b0565b810103126103a05751908361034d565b5f80fd5b3d9150610383565b634e487b7160e01b5f52602160045260245ffd5b63bc02ea9360e01b5f5260045ffd5b6338e102f160e21b5f5260045ffd5b50600d54421161004f565b63683f44bb60e11b5f5260045260245ffd5b63ab35696f60e01b5f5260045ffd5b5f3560e01c9081631069143a146116015750806313db8238146113ec57806318e4274d146109d257806321eff7fc1461122c578063253da8bd146113cf57806331f684c0146113b25780633ba86c44146113955780633cb5d100146113545780633ccfd60b146112c55780633f4ba83a1461126457806342e94c901461122c57806349d2e277146111f25780634bb278f3146110515780634e71d92d14610f3b57806351fb012d14610eff578063590e1ae314610dea5780635c975abb14610dc8578063715018a614610d765780637abbc15014610cf85780637cb6475914610cc35780637e8c95ab14610c805780638456cb5914610c1d5780638da5cb5b14610bf757806391a9207b14610bda5780639e1a4d1914610bbd578063af157c1914610af5578063af1ad48b14610a35578063bedcf00314610a18578063c19d93fb146109ef578063c5c4744c146109d2578063cc2ee19614610891578063cea9d26f14610896578063d02c880a14610891578063d0e30db014610877578063d7cee31e14610834578063e1f1c4a714610818578063ea8a1af01461071f578063ed498fa8146106f4578063f2fde38b14610676578063f7bdc4f71461061c5763fc0c546a146105d9575f61000f565b346103a0575f3660031901126103a05760206040516001600160a01b037f0000000000000000000000000000000000000000000000000000000000000000168152f35b60203660031901126103a05760043567ffffffffffffffff81116103a0576106489036906004016116ea565b610650611a49565b60ff600354166103fb5761067091610669913691611947565b3433611b84565b60015f55005b346103a05760203660031901126103a0576001600160a01b036106976116a8565b61069f611ae4565b1680156106e1576001600160a01b03600154828219821617600155167f8be0079c531659141344cd1fd0a4f28419497f9722a3daafe3b4186f6b6457e05f80a3005b631e4fbdf760e01b5f525f60045260245ffd5b346103a05760203660031901126103a05760206107176107126116a8565b61199d565b604051908152f35b346103a0575f3660031901126103a057610737611a49565b61073f611ae4565b60ff600354166103fb5760ff6011541660048110156103ac576001811480159061080c575b80156107fe575b6103e957600260ff196011541617601155601554806107c0575b6040514281527f27f83af92b39768b17fe0c8d6922452702717efb8626d97e7a754e0b27d4f6d260203392a260015f55602060405160018152f35b6107f8905f601555336001600160a01b037f000000000000000000000000000000000000000000000000000000000000000016611b4d565b80610785565b50601754600854111561076b565b50600d54421115610764565b346103a0575f3660031901126103a05760206040516127108152f35b346103a0575f3660031901126103a05760206040516001600160a01b037f0000000000000000000000000000000000000000000000000000000000000000168152f35b346103a0575f3660031901126103a05760206040515f8152f35b61171b565b346103a05760603660031901126103a0576108af6116a8565b6024356001600160a01b038116918282036103a057604435906108d0611ae4565b83156109c35760ff601154166004811015806103ac576003821491821590816109b4575b506109a5576103ac578061096a575b8061095e575b61094f57816109467f77023e19c7343ad491fd706c36335ca0e738340a91f29b1fd81e2673d44896c4936001600160a01b03602094169586611b4d565b604051908152a3005b63d64d4b7160e01b5f5260045ffd5b50600554421115610909565b506001600160a01b037f0000000000000000000000000000000000000000000000000000000000000000166001600160a01b03821614610903565b63662fcd5d60e01b5f5260045ffd5b91505060025f911415876108f4565b63e6c4247b60e01b5f5260045ffd5b346103a0575f3660031901126103a0576020601754604051908152f35b346103a0575f3660031901126103a05760ff6011541660405160048210156103ac576020918152f35b346103a0575f3660031901126103a0576020600454604051908152f35b346103a05760403660031901126103a05760043560243567ffffffffffffffff81116103a057610a699036906004016116ea565b9190610a73611a49565b60ff600354166103fb576001600160a01b03600e5416908115610ae65782156102be5761067093610ad8610adf93604051906323b872dd60e01b602083015233602483015230604483015286606483015260648252610ad36084836118b0565b611edb565b3691611947565b9033611b84565b6306a39ded60e41b5f5260045ffd5b346103a0575f3660031901126103a0576040518060206014549283815201809260145f527fce6d7b5282bd9a3661ae061feed1dbda4e52ab073b1f9285be6e155d9c38d4ec905f5b818110610b9e5750505081610b539103826118b0565b604051918291602083019060208452518091526040830191905f5b818110610b7c575050500390f35b82516001600160a01b0316845285945060209384019390920191600101610b6e565b82546001600160a01b0316845260209093019260019283019201610b3d565b346103a0575f3660031901126103a0576020601554604051908152f35b346103a0575f3660031901126103a0576020600254604051908152f35b346103a0575f3660031901126103a05760206001600160a01b0360015416604051908152f35b346103a0575f3660031901126103a057610c35611ae4565b60035460ff8116610c715760ff1916600117600355337f62e78cea01bee320cd4e420270b5ea74000d11b0c9f74754ebdbfc544b05a2585f80a2005b631785c68160e01b5f5260045ffd5b346103a0575f3660031901126103a05760206040516001600160a01b037f0000000000000000000000000000000000000000000000000000000000000000168152f35b346103a05760203660031901126103a057610cdc611ae4565b60ff6011541660048110156103ac57806103e957600435600f55005b346103a05760203660031901126103a057600435610d14611ae4565b60ff6011541660048110156103ac57600381036103e95750600554811115610d67576020817ff1178b3c495407dc107b27908c56bee4f47c0295055c88d6110c026737fd2eb392600555604051908152a1005b631da7447960e21b5f5260045ffd5b346103a0575f3660031901126103a057610d8e611ae4565b5f6001600160a01b0360015481198116600155167f8be0079c531659141344cd1fd0a4f28419497f9722a3daafe3b4186f6b6457e08280a3005b346103a0575f3660031901126103a057602060ff600354166040519015158152f35b346103a0575f3660031901126103a057610e02611a49565b60ff6011541660048110156103ac5760028114908115610ed0575b5015610ec157335f52601260205260405f20548015610eb257602090335f52601282525f60408120558060025410155f14610ea957610e5e8160025461192d565b6002555b610e6c8133611b0b565b60405181815242838201527f73f04af9dcc582a923ec15d3eea990fe34adabfff2879e28d44572e01a54abb660403392a260015f55604051908152f35b5f600255610e62565b634625bdf760e01b5f5260045ffd5b631ba168fb60e11b5f5260045ffd5b600191501480610ef4575b80610ee7575b81610e1d565b5060175460085411610ee1565b50600d544211610edb565b346103a0575f3660031901126103a05760206040517f000000000000000000000000000000000000000000000000000000000000000015158152f35b346103a0575f3660031901126103a057610f53611a49565b60ff600354166103fb5760ff6011541660048110156103ac57600381036103e957600554421161104257610f863361199d565b801561103457335f5260126020525f60408120556015549080821061102557610fb18160209361192d565b601555610fe881336001600160a01b037f000000000000000000000000000000000000000000000000000000000000000016611b4d565b60405181815242838201527f30c2341ba3f2142e78472f07dcf018a42044ae1c2c2e7ce867b327257f07ef2b60403392a260015f55604051908152f35b637222ae5760e11b5f5260045ffd5b62f3f86160e41b5f5260045ffd5b632253b77960e01b5f5260045ffd5b346103a0575f3660031901126103a057611069611a49565b611071611ae4565b60ff600354166103fb5760ff6011541660048110156103ac57600181036103e957600d544211156111e357601754600854116111d457600360ff1960115416176011556017547f00000000000000000000000000000000000000000000000000000000000000006110ef6127106110e883856118d2565b048361192d565b60045562ed4e004201908142116111c05761271092611110926005556118d2565b048061115b575b6017546040519081524260208201527f616c9469db50815ae0f1d0a020d9fc9060da7c57f03559afb0d4ebdaa0a3a05e60403392a260015f55602060405160018152f35b7f0f5237766fb8b2313e23d359023b2fe32aa11ff9048495b861341a994d9114bc60206001600160a01b037f00000000000000000000000000000000000000000000000000000000000000006111b18582611b0b565b6040519485521692a280611117565b634e487b7160e01b5f52601160045260245ffd5b632bdc91ad60e01b5f5260045ffd5b63dfc7e2e560e01b5f5260045ffd5b346103a0575f3660031901126103a05760206040517f00000000000000000000000000000000000000000000000000000000000000008152f35b346103a05760203660031901126103a0576001600160a01b0361124d6116a8565b165f526012602052602060405f2054604051908152f35b346103a0575f3660031901126103a05761127c611ae4565b60035460ff8116156112b65760ff1916600355337f5db9ee0a495bf2e6ff9c91a7834c1ba4fdd244a5e8aa4e537bd38aeae4b073aa5f80a2005b636cd6020160e01b5f5260045ffd5b346103a0575f3660031901126103a0576112dd611a49565b6112e5611ae4565b60ff6011541660048110156103ac57600381036103e9576004548015611345575f6004556113138133611b0b565b6040519081527f7084f5476618d8e60b11ef0d7d3f06914655adb8793e28ff7f018d4c76d505d560203392a260015f55005b6367e3990d60e01b5f5260045ffd5b346103a05760203660031901126103a0576004356014548110156103a0576001600160a01b036113856020926116be565b90549060031b1c16604051908152f35b346103a0575f3660031901126103a0576020600554604051908152f35b346103a0575f3660031901126103a0576020601654604051908152f35b346103a0575f3660031901126103a0576020601454604051908152f35b346103a0575f3660031901126103a057611404611a49565b60ff600354166103fb576001600160a01b037f00000000000000000000000000000000000000000000000000000000000000001633036115f25760ff6011541660048110156103ac57806103e957600c544210156103cf576040516370a0823160e01b81523060048201527f00000000000000000000000000000000000000000000000000000000000000006001600160a01b0316602082602481845afa9182156115b3575f926115be575b5081156102be5760049060206114cb600754600b54906118d2565b916040519384809263313ce56760e01b82525afa9081156115b3576114fe61150492611512945f91611584575b506118fe565b906118d2565b61150c611a67565b9061190f565b908160165581811061156f5780602091601555600160ff19601154161760115560405181815242838201527f90890809c654f11d6e72a28fa60149770a0d11ec6c92319d6ceb2bb0a4ea1a1560403392a260015f55604051908152f35b630d25268d60e01b5f5260045260245260445ffd5b6115a6915060203d6020116115ac575b61159e81836118b0565b8101906118e5565b866114f8565b503d611594565b6040513d5f823e3d90fd5b9091506020813d6020116115ea575b816115da602093836118b0565b810103126103a0575190826114b0565b3d91506115cd565b631966391b60e11b5f5260045ffd5b346103a0575f3660031901126103a0576101809060065460075461168d600854600954600a54600b54600c5491600d5493600e5495600f54986001600160a01b03601054169a8c5260208c015260408b015260608a0152608089015260a088015260c087015260e08601526001600160a01b03811661010086015260ff61012086019160a01c1661169b565b610140830152610160820152f35b9060038210156103ac5752565b600435906001600160a01b03821682036103a057565b6014548110156116d65760145f5260205f2001905f90565b634e487b7160e01b5f52603260045260245ffd5b9181601f840112156103a05782359167ffffffffffffffff83116103a0576020808501948460051b0101116103a057565b346103a0575f3660031901126103a0575f61016060405161173b81611893565b8281528260208201528260408201528260608201528260808201528260a08201528260c08201528260e0820152826101008201528261012082015282610140820152015260405161178b81611893565b6006548152600754602082019081526008546040830190815260095460608401908152600a5460808501908152600b5460a08601908152600c5460c08701908152600d549160e08801928352600e549360ff6101008a01956001600160a01b038116875260a01c16956101208a019660038110156103ac578752600f54976101408b019889526010546001600160a01b0316996101608c019a8b526040519b518c525160208c01525160408b01525160608a01525160808901525160a08801525160c08701525160e0860152516001600160a01b03166101008501525161012084016118769161169b565b51610140830152516001600160a01b031661016082015261018090f35b610180810190811067ffffffffffffffff82111761026b57604052565b90601f8019910116810190811067ffffffffffffffff82111761026b57604052565b818102929181159184041417156111c057565b908160209103126103a0575160ff811681036103a05790565b60ff16604d81116111c057600a0a90565b8115611919570490565b634e487b7160e01b5f52601260045260245ffd5b919082039182116111c057565b919082018092116111c057565b9291909267ffffffffffffffff841161026b578360051b906020604051611970828501826118b0565b80968152019181019283116103a057905b82821061198d57505050565b8135815260209182019101611981565b6001600160a01b03165f52601260205260405f20548015611a4457600b546119c4916118d2565b60405163313ce56760e01b8152906020826004817f00000000000000000000000000000000000000000000000000000000000000006001600160a01b03165afa9081156115b3576114fe61150492611a22945f91611a2557506118fe565b90565b611a3e915060203d6020116115ac5761159e81836118b0565b5f6114f8565b505f90565b60025f5414611a585760025f55565b633ee5aeb560e01b5f5260045ffd5b6001600160a01b03600e54168015611ad75760206004916040519283809263313ce56760e01b82525afa5f9181611ab6575b50611aad57631da50fef60e01b5f5260045ffd5b611a22906118fe565b611ad091925060203d6020116115ac5761159e81836118b0565b905f611a99565b50670de0b6b3a764000090565b6001600160a01b03600154163303611af857565b63118cdaa760e01b5f523360045260245ffd5b908015611b4957600e546001600160a01b03169182611b3e575f80935080926001600160a01b0382931682f1156115b357565b611b4792611b4d565b565b5050565b611b47926001600160a01b036040519363a9059cbb60e01b6020860152166024840152604483015260448252610ad36064836118b0565b919260ff6011541660048110156103ac57600181036103e95750600c5442108015611ed0575b6103cf576001600160a01b03831680156103c057600e549260ff8460a01c1660038110156103ac5760018103611e265750600f549460405160208101916bffffffffffffffffffffffff199060601b16825260148152611c0b6034826118b0565b519020935f945b8751861015611c545760208660051b89010151908181105f14611c43575f52602052600160405f205b950194611c12565b905f52602052600160405f20611c3b565b919450929550939093036102f7576001600160a01b03905b1615908115611e0d5734156102be575b8115611e065734915b60175492611c93818561193a565b600754106102a857600954811061029957611cba90855f52601260205260405f205461193a565b600a541061028a5715611dfb5750611cd334809261193a565b601755611ce28160025461193a565b600255815f52601360205260ff60405f20541615611d7b575b60407f08ce00466abd322339ad31e43307a70a872f8c32a13d8b24ed85948ba75ed1b391835f526012602052815f20611d3582825461193a565b9055837f2499a5330ab0979cc612135e7883ebc3cd5c9f7a8508f042540c34723348f63260208451848152a26001600160a01b03600e54161582519182526020820152a2565b815f52601360205260405f20600160ff198254161790556014546801000000000000000081101561026b577f08ce00466abd322339ad31e43307a70a872f8c32a13d8b24ed85948ba75ed1b391611dda826001604094016014556116be565b81549060031b906001600160a01b0387831b921b1916179055915050611cfb565b611cd390809261193a565b8091611c85565b346102e95780611c7c57631f2a200560e01b5f5260045ffd5b9093929550600291945014611e44575b6001600160a01b0390611c6c565b602460206001600160a01b0360105416604051928380926370a0823160e01b82528860048301525afa5f9181611e9c575b50611e895763457b8b9360e11b5f5260045ffd5b611e365763e9e7bfc360e01b5f5260045ffd5b9091506020813d602011611ec8575b81611eb8602093836118b0565b810103126103a05751905f611e75565b3d9150611eab565b50600d544211611baa565b905f602091828151910182855af1156115b3575f513d611f2657506001600160a01b0381163b155b611f0a5750565b6001600160a01b0390635274afe760e01b5f521660045260245ffd5b60011415611f0356fea26469706673582212209375fa4b12aa85a0d8b38a0e454d32de7678c8e55ca91d594f616d8c20527a2d64736f6c634300081c0033a2646970667358221220347f60483c33258f1e9b3a5a473a4d743b37076a35819e2f00ceac565b8dbcf964736f6c634300081c0033",
    "linkReferences": {}
  },
  "methodIdentifiers": {
    "BASIS_POINTS()": "e1f1c4a7",
    "createPresale((uint256,uint256,uint256,uint256,uint256,uint256,uint256,uint256,address,uint8,bytes32,address),address)": "3f987a1f",
    "createdPresales(uint256)": "62e6b3a9",
    "creationFee()": "dce0b4e4",
    "feeToken()": "647846a5",
    "getAllPresales()": "ea9160dd",
    "getCreationFee()": "db07b68e",
    "getHouseAddress()": "92144b62",
    "getHousePercentage()": "7ef97d73",
    "getPresaleAt(uint256)": "a7259767",
    "getPresaleCount()": "defbdb83",
    "houseAddress()": "d7cee31e",
    "housePercentage()": "49d2e277",
    "owner()": "8da5cb5b",
    "renounceOwnership()": "715018a6",
    "setFeeConfiguration(uint256,address)": "fae85927",
    "setHouseConfiguration(uint256,address)": "37a9ab4c",
    "transferOwnership(address)": "f2fde38b",
    "withdrawFees()": "476343ee"
  },
  "id": 41
}